{
	"data": {
		"bytecode": {
			"linkReferences": {},
			"object": "608060405234801561001057600080fd5b5060fb8061001f6000396000f3fe6080604052348015600f57600080fd5b506004361060285760003560e01c80635cce84b014602d575b600080fd5b60436004803603810190603f9190605b565b6045565b005b50565b60008135905060558160b1565b92915050565b600060208284031215606c57600080fd5b60006078848285016048565b91505092915050565b6000608a826091565b9050919050565b600073ffffffffffffffffffffffffffffffffffffffff82169050919050565b60b8816081565b811460c257600080fd5b5056fea264697066735822122000d1371be0b358ce521f0464149d385059f5283c725f3dcdbec41a12bfab610164736f6c63430008030033",
			"opcodes": "PUSH1 0x80 PUSH1 0x40 MSTORE CALLVALUE DUP1 ISZERO PUSH2 0x10 JUMPI PUSH1 0x0 DUP1 REVERT JUMPDEST POP PUSH1 0xFB DUP1 PUSH2 0x1F PUSH1 0x0 CODECOPY PUSH1 0x0 RETURN INVALID PUSH1 0x80 PUSH1 0x40 MSTORE CALLVALUE DUP1 ISZERO PUSH1 0xF JUMPI PUSH1 0x0 DUP1 REVERT JUMPDEST POP PUSH1 0x4 CALLDATASIZE LT PUSH1 0x28 JUMPI PUSH1 0x0 CALLDATALOAD PUSH1 0xE0 SHR DUP1 PUSH4 0x5CCE84B0 EQ PUSH1 0x2D JUMPI JUMPDEST PUSH1 0x0 DUP1 REVERT JUMPDEST PUSH1 0x43 PUSH1 0x4 DUP1 CALLDATASIZE SUB DUP2 ADD SWAP1 PUSH1 0x3F SWAP2 SWAP1 PUSH1 0x5B JUMP JUMPDEST PUSH1 0x45 JUMP JUMPDEST STOP JUMPDEST POP JUMP JUMPDEST PUSH1 0x0 DUP2 CALLDATALOAD SWAP1 POP PUSH1 0x55 DUP2 PUSH1 0xB1 JUMP JUMPDEST SWAP3 SWAP2 POP POP JUMP JUMPDEST PUSH1 0x0 PUSH1 0x20 DUP3 DUP5 SUB SLT ISZERO PUSH1 0x6C JUMPI PUSH1 0x0 DUP1 REVERT JUMPDEST PUSH1 0x0 PUSH1 0x78 DUP5 DUP3 DUP6 ADD PUSH1 0x48 JUMP JUMPDEST SWAP2 POP POP SWAP3 SWAP2 POP POP JUMP JUMPDEST PUSH1 0x0 PUSH1 0x8A DUP3 PUSH1 0x91 JUMP JUMPDEST SWAP1 POP SWAP2 SWAP1 POP JUMP JUMPDEST PUSH1 0x0 PUSH20 0xFFFFFFFFFFFFFFFFFFFFFFFFFFFFFFFFFFFFFFFF DUP3 AND SWAP1 POP SWAP2 SWAP1 POP JUMP JUMPDEST PUSH1 0xB8 DUP2 PUSH1 0x81 JUMP JUMPDEST DUP2 EQ PUSH1 0xC2 JUMPI PUSH1 0x0 DUP1 REVERT JUMPDEST POP JUMP INVALID LOG2 PUSH5 0x6970667358 0x22 SLT KECCAK256 STOP 0xD1 CALLDATACOPY SHL 0xE0 0xB3 PC 0xCE MSTORE 0x1F DIV PUSH5 0x149D385059 CREATE2 0x28 EXTCODECOPY PUSH19 0x5F3DCDBEC41A12BFAB610164736F6C63430008 SUB STOP CALLER "
		},
		"gasEstimates": {
			"creation": {
				"codeDepositCost": "50200",
				"executionCost": "99",
				"totalCost": "50299"
			},
			"external": {
				"checkSynt(address)": "433"
			}
		},
		"methodIdentifiers": {
			"checkSynt(address)": "5cce84b0"
		}
	},
	"abi": [
		{
			"inputs": [
				{
					"internalType": "address",
					"name": "synt",
					"type": "address"
				}
			],
			"name": "checkSynt",
			"outputs": [],
			"stateMutability": "nonpayable",
			"type": "function"
		}
	]
}